:020000040800F2
:10000000582D0020450200084D0200084F0200084C
:1000100051020008530200085502000800000000C9
:10002000000000000000000000000000570200086F
:1000300059020008000000005B020008F5290008D2
:100040005F0200085F0200085F0200085F0200080C
:100050005F0200085F0200085F0200085F020008FC
:100060005F0200085F0200085F0200085F020008EC
:100070005F0200085F0200085F0200085F020008DC
:100080005F0200085F0200085F0200085F020008CC
:100090005F0200085F0200085F0200085F020008BC
:1000A0005F0200085F0200085F0200085F020008AC
:1000B0005F0200085F0200085F0200085F0200089C
:1000C0005F0200085F0200085F0200085F0200088C
:1000D0005F020008CD310008DD3100085F02000832
:1000E0005F0200085F0200085F02000800F002F8EB
:1000F00000F099F80AA090E8000C82448344AAF129
:100100000107DA4501D100F08EF8AFF2090EBAE826
:100110000F0013F0010F18BFFB1A43F0010318473B
:100120000C8F00002C8F0000103A24BF78C878C1D3
:10013000FAD8520724BF30C830C144BF04680C60ED
:10014000704700000023002400250026103A28BF35
:1001500078C1FBD8520728BF30C148BF0B60704739
:100160006E2900F0F583702900F04587662907F0B5
:100170004487652907F04187672907F03E87612991
:10018000AFF3008003681B0A28BF41F08001692992
:1001900000F0A283642900F09F83752900F09C83FE
:1001A0006F2900F0D386782900F01187E92900F043
:1001B0006D86E42900F06A86F52900F06786EF294C
:1001C00000F0D086F82900F010870368DB0928BF0B
:1001D00041F08001632901F07380732901F0788078
:1001E000E32901F08380F32901F088800020704723
:1001F0001FB59DE8030000F02DFA00F04FFF04004A
:100200000020002106F0AAFD401C606000200021B3
:1002100006F08EFDE06000F0EBF91FBD10B5002088
:1002200000F0F4FE10BD01F00DF91146FFF7E0FFFC
:1002300005F03AFD01F034F903B4FFF7EFFF03BC1A
:1002400001F0FAF80948804709480047FEE7FEE751
:10025000FEE7FEE7FEE7FEE7FEE7FEE7FEE7FEE776
:1002600004480549054A064B70470000192A000852
:10027000ED000008580D0020582D0020581D0020CA
:10028000581D002010B54C1084EA530404D5404298
:10029000C1F1000138BF491E1B4204D55242C3F1CF
:1002A000000338BF5B1E00F05AFA14F0804F04D0F0
:1002B0004042C1F1000138BF491E14F0004F04D084
:1002C0005242C3F1000338BF5B1E10BD1CB50C4683
:1002D000064B7B4469460090204600F060FD0446D2
:1002E0000020694600F06EFD20461CBDEF0A0000AC
:1002F00070B5044685690068C10601D5302600E066
:100300002026C00707D070BDD4E9012130469047B0
:10031000206A401C20626D1EF6D570BD70B5044683
:1003200085690078C00707D170BDD4E9012120207C
:100330009047206A401C20626D1EF6D570BD0000FB
:100340002DE9F05F894604464FF0000ADFF874B1EA
:10035000FB44C0F820A02046E1688847002874D0FC
:10036000252806D0D4E901219047206A401C20624C
:10037000F1E700265F462046E168884720280546C9
:1003800007DB312D05D2781910F8200C08B106438F
:10039000F1E7B00701D526F00406C4F81CA0002739
:1003A000C4F818A02A2D09D0284603F02DFF38B331
:1003B00004EB8708303DC8F8185019E059F8041BC1
:1003C000204604EB87029161E1688847012F0546CA
:1003D00018D1E069002820DA26F020061DE0D8F8C0
:1003E000180000EB800005EB40003038C8F818001A
:1003F0002046E1688847054603F006FF0028EED155
:10040000012F0AD02E2D08D12046E16888477F1C95
:100410000546022F46F02006C4DBA069002803DA57
:10042000404246F00106A061F00701D026F0100618
:100430006C2D0BD0682D09D04C2D39D06A2D35D0BC
:10044000742D35D07A2D33D016E038E0E1682F4690
:1004500020468847B842054609D16C2F26D04FF474
:100460008060E168064320468847054604E06C2F1B
:100470001AD04FF4807006430DB3A5F1410019283E
:1004800002D8203546F400664A46294620462660B2
:100490004E46FFF765FE80B101280BD0F61D26F011
:1004A000070000F1080956E74020E4E78020D8E77C
:1004B0000020D6E706F104094DE7284652E7206AF6
:1004C000BDE8F09F128A00002DE9F041074615466D
:1004D0000E46102000F0EDF804000AD06760C4E971
:1004E000026500F09BF80168216004600020BDE80F
:1004F000F0810120FBE740EA010310B59B070FD113
:10050000042A0DD310C808C9121F9C42F8D020BA83
:1005100019BA884201D9012010BD4FF0FF3010BD3B
:100520001AB1D30703D0521C07E0002010BD10F809
:10053000013B11F8014B1B1B07D110F8013B11F8CF
:10054000014B1B1B01D1921EF1D1184610BD10B5F5
:10055000431C02E010F8011B71B18107FAD14FF082
:10056000013202C88C1A8C4314EAC211F9D0C01AA5
:100570000A0603D0C01E10BDC01A10BD0A0401D067
:10058000801E10BD0902FCD0401E10BD02F0FF030A
:1005900043EA032242EA024200F05BBD4FF0000250
:1005A00000B5134694469646203922BFA0E80C5069
:1005B000A0E80C50B1F12001BFF4F7AF090728BF44
:1005C000A0E80C5048BF0CC05DF804EB890028BFC0
:1005D00040F8042B08BF704748BF20F8022B11F0E9
:1005E000804F18BF00F8012B704770477047704765
:1005F00070B5064C7C44064D7D4403E020682044E1
:100600008047241DAC42F9D170BD0000808B0000F2
:10061000808B000000487047FC0C002000487047A9
:100620002C0D0020704770477047704738B504465E
:100630000A4600206946AFF30080002808BF38BD95
:1006400002460099204600F038FD012038BD012007
:1006500000F0EBBEF8B5AFF30080054600200C4675
:10066000102000BF0646A819A0420DD9324669469F
:100670000020AFF30080070008BF00F0D6FE00980E
:10068000A04218BF0546C419FFF7C4FF056007461E
:10069000F01D20F007004619284600F007FDB4427F
:1006A00008BFF8BDA21B31463868BDE8F84000F02D
:1006B00004BD70B50646FFF7ADFF056806F10B00F7
:1006C00020F00704B4429CBF002070BD2B466A682E
:1006D000BAB11068A04210D304F1080188423CBFAF
:1006E0005068586007D35168101941601168091BA0
:1006F000016058601460101D70BD13465268002AD6
:10070000E7D121462846FFF791FF0028DED170BDD2
:1007100070B50446051FFFF77DFF0068002C14BF6D
:10072000446870BD002C18BFAC423CBF20466468D2
:10073000F8D301680A18AA4218BF456003D12A6895
:1007400005461144016028684119A1421CBF6C6034
:1007500070BD6168696021680844286070BD53EA13
:10076000020C00F069802DE9F04B4FF00006002BE1
:100770001FBFB3FA83F503FA05F424FA05F65E40C9
:1007800012BF1643B2FA82F502FA05F4C5F120054C
:100790001EBF22FA05FC44EA0C04203556EA044C3C
:1007A0004FEA144418BF641C4FF000084FF00009D2
:1007B000904271EB030C39D3002919BFB1FA81F7CC
:1007C00001FA07F6B0FA80F700FA07F6C7F120073A
:1007D0001EBF20FA07FC46EA0C062037B6FBF4FCE5
:1007E000A7EB0507103F07F01F0BCBF120060CFA13
:1007F0000BFB2CFA06F644BFB3460026202FA4BFFD
:100800005E464FF0000B5BEA060C08BF4FF0010B91
:1008100019EB0B09ABFB027C48EB0608C01B06FB7F
:1008200002CC0BFB03CC71EB0C01C1E70B4602467B
:1008300041464846BDE8F08B13B54FF000004FF03D
:100840000001AFF30080BDE81C40704710B500F018
:1008500029FC006810BD10B5044600F023FC0460BC
:1008600010BD09684A0501D540B27047C905FCD5DD
:1008700000B2704709684A0501D5C0B27047C90582
:10088000FCD580B2704770B50C460546012A05D0EC
:100890002878800600D5EA69002302E0012305E0FC
:1008A0005B1C934202D2E05C0028F9D1A869E618EB
:1008B000C01AA861286A184428622846FFF718FD64
:1008C00004E0D5E9012114F8010B9047B442F8D3B4
:1008D0002846FFF723FD70BD2DE9F04106460024B0
:1008E00010687529314616A510D0FFF7BAFF002809
:1008F00002DA404213A507E031688A0701D512A544
:1009000002E0490704D511A5012401E0FFF7B2FF79
:1009100000210A2206F1240709E0B0FBF2FCB0FB3B
:10092000F2F302FB1C00303078541846491C0028B2
:10093000F3D123462A463046BDE8F04100F01CBC06
:10094000000000002D0000002B000000200000002F
:1009500011680268006A530501D508700AE0D305E2
:1009600001D5088006E0130603D5C217C1E90002CD
:1009700000E008600120704770472DE9FF4F0C46EA
:100980001E464FF0FF378BB0D2E90001DDF86080E2
:100990000A908A46C1F30A5505B93D46002108462A
:1009A0004FF00000BAF1000F00F4400005DA00EB50
:1009B00080004FF4400101EA50004FEA9059B9F12C
:1009C000010F00DDB9460A9850EA4A000ED044F6FD
:1009D0001050A5F2FF3545432F14B8F1000F1ED07B
:1009E0007542291E1EDDC9F100021CE0B8F1010F9D
:1009F0004FF0000001D0302103E0F24305E0215424
:100A0000401CB042FBDB30460022002121540B99F0
:100A1000C1F80880C1E900200FB0BDE8F08FBD1B10
:100A20006D1CDEE74A4600DA694206A800F06AFC5F
:100A300006AB93E8070003AB83E8070050460A992A
:100A400000F0C0FD8DE80700A0F500501F380090B1
:100A50000398002D09DD42F21F014A46084403A90C
:100A60000390684601F01FF808E0A0F500504A46E0
:100A70001F3803A90390684601F029F88DE80700A4
:100A80000004000C03D04FF0FF30410800E0104696
:100A9000B8F1000F03D00022009215461EE0751E2B
:100AA00005D400F024FB303262556D1EF9D5B346F3
:100AB0000122084302D000227F1C04E02078302865
:100AC00001D100227F1E002A099786D01DE0112D3A
:100AD00007DA00F00CFB303262556D1C50EA01025F
:100AE000F5D1084302D00098C8B10EE00021681E7D
:100AF00005E0235C625C63542254401E491C814221
:100B0000F7DBAB46A81B401E0990002004F80B0041
:100B10000B98099AC0F80880C0E9002B7CE71126E1
:100B20004FF0000859E72DE9F04F88460446D21DE2
:100B300022F0070191B0D1E90001CDE90A0103F0EB
:100B400047FA02460B98C00F01D02D2007E020681D
:100B5000810701D52B2002E0202101EAC000032AF1
:100B6000099001D0072A05DB03464146204600F0E4
:100B70005DFB0BE12078800601D5E06900E00620EE
:100B8000B8F1650F814606D0B8F1660F18D0B8F1FC
:100B9000670F70D131E00020B9F1110F009001DB37
:100BA000112301E009F101030AAA01A90CA8FFF72A
:100BB000E4FEDDE90C70002609F10105834647E0FB
:100BC00001204B4600904FF000470AAA01A90CA84B
:100BD000FFF7D3FEDDE90DB00C995D46002610B994
:100BE00009F101000D18B9EB050003D4C0F1FF367F
:100BF00009F10105A5EB09002BE0B9F1010F01DABC
:100C00004FF001090020B9F1110F0090484601DDB5
:100C1000112300E003460AAA01A90CA8FFF7ADFEC4
:100C2000DDE90C704D4600268346207800070AD483
:100C3000AB4500DA5D4601A8012D04DD411911F82C
:100C4000011C302907D04F4502DA17F1040F04DAEE
:100C5000012082460FE06D1EEEE7002F02DCED1B47
:100C60003E4403E0781CA84200DD7D1CB81B00F167
:100C7000010A4FF000472078000703D4AA4501DBA2
:100C80004FF0FF3A0021B7F1004F0DF143088DF806
:100C9000431024D002202B23002F01DA7F422D2382
:100CA0000A21021EA0F1010000DC5FB197FBF1FCFC
:100CB00097FBF1F201FB1C7C17460CF1300C08F895
:100CC00001CDEEE7A8F1010003702188090501D5E7
:100CD000452100E06521A0F1010800F8011C0998F8
:100CE0000FA9A1EB0807FF1D00B10120411901EB7D
:100CF000EA70A1693844081A401EA0612078C00635
:100D000002D42046FFF7F4FA099828B1D4E901216A
:100D10009047206A401C20622078C00622D52046D9
:100D2000FFF7E6FA1EE0002E04DBB34502DD01A862
:100D3000805D00E03020D4E901219047206A401C0A
:100D40002062761CAAF101005FEA000A0AD100F0D5
:100D5000A5F9C0680168405CD4E901219047206A88
:100D6000401C2062281EA5F10105DCDC07E0D4E967
:100D7000012118F8010B9047206A401C2062381EA0
:100D8000A7F10107F3DC2046FFF7C8FA032011B0F2
:100D900043E6000001694A1C02610878704700B50B
:100DA0008FB0CDE901310021059105497944CDE9A4
:100DB000031011466846FFF7C3FA0FB000BD0000EC
:100DC000E5FFFFFF0A6802F8010B0A6070470000A8
:100DD0002DE9FF5F15468A460446DFF8AC80F844EB
:100DE0000027D8E900103E46CDE9001010E03AF89F
:100DF00016106A4602A800F0F3FA411C07D02178C9
:100E0000890603D5E269391891420DD80744761C4A
:100E10002078800602D5E069B84205DDAE42E6DB07
:100E20003AF816000028E2D1A069C01BA061204654
:100E3000FFF75EFAD8E90010CDE90010002017E0B6
:100E40003AF818106A4602A800F0CAFAB0F1FF3F5B
:100E500081460BD000250DF1080B05E0D4E90121F6
:100E60001BF8050090476D1C4D45F7D308F10100B4
:100E7000B0428046E4DB206A384420622046FFF717
:100E80004DFABDE8FF9F0000E67F00002DE9F0412C
:100E90008046D21D22F007020025D2E90002F52982
:100EA00015A614D0011E72F1000106DA0023D0EB62
:100EB000030063EB020211A608E0D8F800108B07CC
:100EC00001D50FA602E0490701D50EA6012511465E
:100ED000002408F1240704E000F009F930323A5503
:100EE000641C50EA0102F7D12B46324621464046A7
:100EF000BDE8F04100F040B9000000002D00000006
:100F00002B0000002000000030B4002100F1240478
:100F100008E002F00705D208303542EA4372DB08E8
:100F20006554491C52EA0305F3D10468002310A25A
:100F3000250708D504F020040C4304D0C46901231C
:100F40000CA2641EC46130BC00F016B910B5044692
:100F500021461068FFF78EFC02462046BDE810408F
:100F60000023D1E7D21D22F00701D1E90023CBE70E
:100F70000000000030000000F0B40D4601880905B3
:100F800002D5214C7C4402E01F4C7C440E340021ED
:100F900000F1240608E002F00F071209E75D42EABB
:100FA00003721B097754491C52EA0307F3D10278F4
:100FB0000023120704D5702D06D009B10223113485
:100FC0002246F0BC00F0D8B801231034F8E770B521
:100FD00004460D4621461068FFF74CFC02462946A0
:100FE0002046BDE870400023C6E7D21D22F007036B
:100FF000D3E90023C0E70368126843F020030360CD
:101000000823C3610023B7E7487E00002DE9F041C3
:101010000646FFF703FB8046454613E016B1E0683D
:10102000B0420ED120682860D4E90101D8F80070E0
:1010300088472046FFF76CFBD8F80000B842EBD198
:1010400000E025462C68002CE8D1BDE8F0814FF087
:1010500000020429C0F0128010F0030C3FF4A0AA93
:10106000CCF1040CBCF1020F18BF00F8012BA8BF93
:1010700020F8022BA1EB0C01FFF792BA5FEAC17CCA
:1010800024BF00F8012B00F8012B48BF00F8012B0A
:101090007047000000487047F40C0020004870477B
:1010A000140D002000487047F40C0020002101605E
:1010B000C0E90110704710207047034640688C4615
:1010C000002818BF88423CBF03464068F8D3186820
:1010D0001844884207D00CF1030020F00700001DDF
:1010E000411A521A0146081D0A60FFF711BB30B5BC
:1010F000B0F10A024FEA900E71F100034EEA817ED0
:10110000B0EB0E0061EB91014FEA101E4EEA017E3A
:1011100010EB0E0041EB11114FEA102E4EEA016E5A
:1011200010EB0E0041EB11214FEA104E4EEA014E3A
:1011300010EB0E0041EB1141401841F100014FEA64
:10114000D00040EA41704FEAD10110EB80054FEA30
:10115000810444EA907444EB01046D1944EB0404E7
:10116000521BA3414FF0000348BF0A3200D530BDE7
:10117000401C41F1000130BD2DE9F0470D46994674
:101180009246044600F124080168880604D5E06907
:1011900021F01001216000E00120A84201DD471B81
:1011A00000E00027A1697A1902EB0900081AA06182
:1011B0002078C00602D42046FFF79AF8002608E0FF
:1011C000D4E901211AF806009047206A401C761CD9
:1011D00020624E45F4DB2078C0060AD52046FFF792
:1011E00087F806E0D4E9012130209047206A401CAE
:1011F0002062381EA7F10107F4DC07E0D4E90121E1
:1012000018F805009047206A401C2062281EA5F1AE
:101210000105F3DC2046FFF781F82078000602D5AF
:101220000220BDE8F0870120FBE700002DE9F04136
:101230001F46044603260168072A01F4006004DB08
:1012400008B116A505E016A503E008B115A500E054
:1012500015A521F010002060A069C01EA0610FB18B
:10126000401EA0612046FFF743F84FB1D4E90121A9
:1012700038469047206A401C2062C01C206206E06D
:10128000206AFAE7D4E9012115F8010B9047761E90
:10129000F8D22046FFF742F8BDE8F0814E414E00FB
:1012A0006E616E00494E4600696E660010B5436976
:1012B00013B1AFF3008001E0FFF7E5FA012010BDA4
:1012C000127800F124010A7000224A700122EDE731
:1012D00011684FF0FF32E9E710B5436913B1AFF37E
:1012E000008001E0FFF774FD012010BD128800F1BD
:1012F000240182840022C2840122EDE711684FF0AC
:10130000FF32E9E72DE9F047814616468AB03348B7
:1013100078440DC88DE80D0030487844801C03AC3B
:101320000DC884E80D0041F69B300844372190FB3E
:10133000F1F290FBF1F5A5F1800501FB12041B3CD5
:1013400002D56442012000E00020DFF890A0804632
:101350000027FA44AAF1BE0A0DE0E00709D03246A0
:10136000684607EB47010AEB810100F0B0FB8DE80E
:10137000070064107F1C002CEFD1184F7F44AC3F56
:1013800018E0E80714D007EB04100DF1180A90E8F4
:101390000E008AE80E00C068F04201D1981908904A
:1013A000324606A903A800F092FB03AB83E80700CE
:1013B0006D10641C002DE4D132466946B8F1000F6F
:1013C00003A802D000F06FFB01E000F080FBC9E948
:1013D0000001C9F808200AB0BDE8F087007C0000D1
:1013E00070B516460C46054600F052F8036893F8AF
:1013F0000101012806D0FF2C0FD8185D68B101202B
:101400002C7070BDD3F807013246214603F2071352
:1014100003442846BDE8704018474FF0FF3070BDC8
:10142000002801D000F008B8704710B500F05AF855
:10143000BDE81040FFF7F4BF01491820ABBEFEE73E
:10144000260002007546FFF725FEAE4605006946F8
:10145000534620F00700854618B020B5FEF700FF80
:10146000BDE820404FF000064FF000074FF00008A5
:101470004FF0000B21F00701AC46ACE8C009ACE826
:10148000C009ACE8C009ACE8C0098D46704700004F
:1014900010B5FFF703FE001D10BD00BFC1580000CE
:1014A00010B50446AFF300802046BDE81040FEF7BB
:1014B000C3BE70B505460C460A2000E06D1C00F066
:1014C00079F835B128780028F8D102E0641C00F0E2
:1014D00071F814B120780028F8D1BDE870400A20D6
:1014E00000F068B810B5012805D0002103A0FFF76F
:1014F000E0FF012010BD09A1F8E700005349475261
:10150000544D454D3A204F7574206F6620686561D3
:1015100070206D656D6F7279000000003A2048659B
:101520006170206D656D6F727920636F7272757076
:10153000746564004FF0013C50F8042B51F8043BF3
:101540009A4221D1A2EB0C03934313EACC1317D197
:1015500050F8042B51F8043B9A4215D1A2EB0C032E
:10156000934313EACC130BD150F8042B51F8043BEE
:101570009A4209D1A2EB0C03934313EACC13DBD0BC
:101580004FF00000704700BFD01A01BAB1FA81F1E4
:1015900001F0180122FA01F0CB40C1F12001DBB2C9
:1015A000C0B2C01A2CFA01F3D11A914311EAC31147
:1015B000E6D1704708B569468DF800000320ABBE40
:1015C00008BD70475FEA400C08BF91F0000F4FEA7A
:1015D0008C234FEAC12243EA51514FEA1C5018BFF5
:1015E00000F5F0404FEA300018BF41F000415FEADB
:1015F0006C5C00F02980BCF1FF3F08BF40F08040E8
:101600007047130C06BF12044FF0100C4FF0000C83
:10161000130E04BF12020CF1080C130F04BF1201C9
:101620000CF1040C930F04BF92000CF1020CD30FC9
:1016300004BF52000CF1010C11464FF00002A0F162
:101640001F00A0EB0C00704711F0004F08BF70475F
:1016500031F000413FF4D5AF0B0C06BF09044FF049
:10166000100C4FF0000C0B0E04BF09020CF1080C1B
:101670000B0F04BF09010CF1040C8B0F04BF890090
:101680000CF1020CCB0F04BF49000CF1010CCCF1A2
:101690002003A0EB0C0022FA03F302FA0CF241EA59
:1016A000030100F10100704720F07F4C80EA030045
:1016B00023F07F47ACEB070303F57C5300F00040B9
:1016C00003F1FF032DE980494FEA154B09B44FEAB6
:1016D000144325EA0B4E24EA03480FF2042606EBD6
:1016E000132749083E785FEA320203FB0667C7F515
:1016F000000707FB06F64FEA54374FEAD64606F1D5
:10170000020607FB066CCCF1005C4FEA1C472CEA92
:10171000074C07FB06F40CFB06F504EB15464FEAF5
:10172000961634BF00204FF000404FEAD13706FB39
:1017300007FC4FEA1C4C0CFB0BF7D21B03FB0CF70E
:1017400061EB07010CFB0EF7B0EB074072EB1742A1
:101750000CFB08F734BFA2EB0742B2EB074261EB88
:1017600017414FEA0C444FEA910706FB07FC4FEA8A
:101770001C4C0CFB0BF7B0EBC74072EB573203FB72
:101780000CF734BFA2EBC742B2EBC74261EB573153
:101790000CFB0EF7B0EBC70072EB57720CFB08F7AF
:1017A00034BFA2EBC702B2EBC70261EB5771039FD4
:1017B0004FEA816141EA921104EBCC044FEAD13740
:1017C0004FEA826206FB07FC42EA90124FEA806011
:1017D0004FEA1C4C0CFB0BF7D21B03FB0CF761EB25
:1017E00007010CFB0EF7B0EB074072EB17420CFB46
:1017F00008F734BFA2EB0742B2EB074261EB174197
:101800004FEA8C554FEA910704EB9C2406FB07FC3A
:101810004FEA1C4C0CFB0BF7B0EBC74072EB573296
:1018200003FB0CF734BFA2EBC742B2EBC74261EB3C
:1018300057310CFB0EF7B0EBC70072EB57720CFB85
:1018400008F734BFA2EBC702B2EBC70261EB5771D6
:1018500015EB4C254FEA816141EA92114FEA826211
:101860004FEAD13742EA901206FB07FC44F100042C
:101870004FEA80604FEA1C4C0CFB0BF7D21B03FBBA
:101880000CF761EB07010CFB0EF7B0EB074072EBB6
:1018900017420CFB08F734BFA2EB0742B2EB07423A
:1018A00061EB174115EB1C154FEA813141EA92417A
:1018B0004FEA823242EA90424FEA80304FEA0C7699
:1018C00044F1000448EA03434EEA0B484FF0000E8F
:1018D000B2EB080C71EB030724BF624639464EEBAE
:1018E0000E0E4FF0000B0018524149414BEB0B0B11
:1018F000B2EB080C71EB03077BF1000B24BF6246CF
:1019000039464EEB0E0E4FF0000B00185241494184
:101910004BEB0B0BB2EB080C71EB03077BF1000BED
:1019200024BF624639464EEB0E0E51EA020718BF3D
:1019300046F0010616EB0E7655F1000254F1000157
:1019400003D5BDE88901BDE80088BDE88901BDE88F
:101950000048B619524141EB0101A3F10103704760
:1019600080807F7E7D7C7B7A7978777676757473DC
:10197000727171706F6E6E6D6C6C6B6A6A6968689B
:10198000676666656464636362616160605F5F5E31
:101990005E5D5D5C5C5B5B5A5A59595858575756A7
:1019A000565555555454535352525251515050500C
:1019B0004F4F4F4E4E4D4D4D4C4C4C4B4B4B4A4A5E
:1019C0004A494949484848474747474646464545A2
:1019D00045444444444343434342424242414141DB
:1019E000002B26D4770021D01CB54FEA370703B46B
:1019F0004FF010004FF010014FF000000FBCBDE899
:101A000010400BF1010BBBF1010F08BF5FEA170794
:101A100022BF12F1010211F101014FF0004143F127
:101A2000000300F0004043EA00007047F9D3570874
:101A3000DAE746EA064613F1400F4FEA16461FDD85
:101A400013F1200FDFBF16430A46002120335B420B
:101A5000C8D0C3F1200746EA064602FA07F74FEA64
:101A6000164646EA0706C3F1200722FA03F201FAF6
:101A700007F721FA03F14FF0000342EA0702B1E74A
:101A800046EA020646EA06464FEA164646EA0106D6
:101A9000BCBF46EA0646360C4FF000034FF000028A
:101AA0004FF000019EE72DE9C048934630B491E81D
:101AB000380007C831EA400C48BF34EA430C03D56C
:101AC000FFF7F2FDFFF78CFFF0BCBDE800882DE9C1
:101AD000C048934630B491E8380007C810F0804FF2
:101AE00008BF13F0804F03D100F005F8FFF778FF2F
:101AF000F0BCBDE8008820F07F4780EA030023F0B7
:101B00007F4C07EB0C03A3F57C5300F00040A3F1DE
:101B1000FE0392F0000F00F0B38095F0000F00F08C
:101B200077802DE901494FEA11404FEA144621EA36
:101B3000004800FB06FC24EA064708FB06F607FB04
:101B400008F800FB07F718EB06484CEB164C4FEA79
:101B5000124B18EB07484FEA15464CEB174022EAA8
:101B60000B4E0BFB06FC25EA06470EFB06F607FBB1
:101B70000EFE0BFB07F71EEB064E4CEB164C4FF020
:101B800000061EEB074E4CEB174B18EB0B0840F111
:101B9000000018EB0E0B58EB000840F100008F1A04
:101BA0004FF000013CBFC943661B14BFB5EB040CEA
:101BB00000213CBFC943F61B4FEA17444EEA8E0E84
:101BC00027EA04454FEA1C4704FB07622CEA074C4E
:101BD00005FB07F70CFB05F604FB0CFC16EB0746B0
:101BE00042EB174216EB0C4642EB1C421BEB06067F
:101BF00058EB0202414146EA9E0601D5BDE8018943
:101C0000B619524141EB0101A3F10103BDE801897D
:101C10004FEA14454FEA114724EA054621EA074CEA
:101C200005FB07F406FB07F70CFB06F105FB0CFCB4
:101C300011EB074144EB17444FEA124711EB0C41FB
:101C400044EB1C4422EA074C05FB07F206FB07F7AE
:101C50000CFB06F605FB0CFC16EB074642EB1742A5
:101C600016EB0C4642EB1C456A1854F1000148BFC4
:101C70007047B619524141EB0101A3F101037047CE
:101C800095F0000F37D04FEA11424FEA144721EA8E
:101C9000024624EA074C02FB07F106FB07F70CFBA0
:101CA00006F402FB0CFC14EB074441EB17414FEA2E
:101CB000154714EB0C4441EB1C4125EA074C02FB91
:101CC00007F506FB07F70CFB06F602FB0CFC16EB10
:101CD000074645EB174516EB0C4645EB1C4212191F
:101CE00051F1000148BF7047B619524141EB010163
:101CF000A3F1010370474FEA14454FEA114724EA64
:101D0000054621EA074C05FB07F106FB07F70CFB2C
:101D100006F24FF0000605FB0CFC12EB074241EB0C
:101D2000174112EB0C4251EB1C4148BF704792180F
:101D300041EB0101A3F10103704721B1826842F038
:101D40000102826003E0826822F001028260704733
:101D500021B1826842F48072826003E0826822F4DA
:101D6000807282607047014600208A6802F0040297
:101D70000AB1012000E000207047014600208A6877
:101D800002F008020AB1012000E0002070470000C4
:101D900030B502460020002350680F4C20400D79DA
:101DA0000C6844EA05242043506090680B4C2040A6
:101DB000D1E902542C434D7944EA45042043906014
:101DC000D06A20F470000C7C641EE4B2234340EA25
:101DD0000350D06230BD0000FFFEF0FFFDF7F1FFC1
:101DE000F0B504460D4600200021092D11DDE06804
:101DF000A5F10A0606EB4607072606FA07F188430F
:101E0000A5F10A0606EB460603FA06F10843E06070
:101E10000CE0206905EB4507072606FA07F1884321
:101E200005EB450603FA06F108432061072A0FDA9D
:101E3000606B561E06EB86071F2606FA07F18843DD
:101E4000561E06EB860605FA06F10843606322E09B
:101E50000D2A0FDA206BD61F06EB86071F2606FA1F
:101E600007F18843D61F06EB860605FA06F10843FC
:101E7000206310E0E06AA2F10D0606EB86071F263C
:101E800006FA07F18843A2F10D0606EB860605FA6D
:101E900006F10843E062F0BD816841F0080181600D
:101EA000704721B1826842F4A002826003E0826838
:101EB00022F4A00282607047816841F004018160D1
:101EC000704721B1026842F00102026004E002683A
:101ED0004FF6FE731A4002607047000001684FF62B
:101EE000FE72114001600021016041608160C160AB
:101EF0004B49884208D14A490839496841F00F01E5
:101F0000474A083A51608AE045491431884208D16D
:101F100043490839496841F0F001414A083A5160A3
:101F20007DE03F492831884208D13D490839496858
:101F300041F470613A4A083A516070E038493C31E6
:101F4000884208D136490839496841F47041344A19
:101F5000083A516063E032495031884208D1304933
:101F60000839496841F470212D4A083A516056E019
:101F70002B496431884208D129490839496841F41C
:101F80007001274A083A516049E025497831884272
:101F900008D123490839496841F07061204A083A5C
:101FA00051603CE01F49884206D1011F096841F099
:101FB0000F01021F116032E01A491431884208D122
:101FC0001849091F096841F0F001164A121F1160F3
:101FD00025E014492831884208D11249091F0968AF
:101FE00041F470610F4A121F116018E00D493C3135
:101FF000884208D10B49091F096841F47041094A18
:10200000121F11600BE007495031884207D1054982
:10201000091F096841F47021024A121F11607047BC
:10202000080002400804024010B50022026847F68A
:10203000F0739A430C6A8B6823430C6923434C6901
:1020400023438C692343CC6923434C6A23438C6A22
:1020500023431A430260CB6843600B6883604B687C
:10206000C36010BD2DE9F041024600250026002086
:1020700000230024002791F803C00CF00F0591F80D
:1020800003C00CF0100CBCF1000F03D091F802C09B
:102090004CEA050591F800C0BCF1000F31D014687E
:1020A00000202BE04FF0010C0CFA00F3B1F800C057
:1020B0000CEA03069E4220D183004FF00F0C0CFA6D
:1020C00003F7BC4305FA03FC4CEA040491F803C08F
:1020D000BCF1280F06D14FF0010C0CFA00FCC2F83D
:1020E00014C00AE091F803C0BCF1480F05D14FF0CD
:1020F000010C0CFA00FCC2F810C0401C0828D1D317
:102100001460B1F800C0BCF1FF0F34DD546800204A
:102110002EE000F1080C4FF0010808FA0CF3B1F8BA
:1021200000C00CEA03069E4221D183004FF00F0C41
:102130000CFA03F7BC4305FA03FC4CEA040491F8DB
:1021400003C0BCF1280F05D100F1080C08FA0CF807
:10215000C2F8148091F803C0BCF1480F07D100F118
:10216000080C4FF0010808FA0CF8C2F81080401C67
:102170000828CED35460BDE8F0810000F0B50A46CF
:10218000002300240021002500F00046B6F1004F96
:1021900002D11D4EF16901E01B4E7168C0F3034589
:1021A00083B200F44016B6F5401F08D121F07061EB
:1021B000154E766826F07066134F7E6012E000F4CC
:1021C0008016B6F5801F06D1032606FA05F4A14352
:1021D00041F0706106E0460D360103FA06F6B143A0
:1021E00041F0706122B1460D360103FA06F6314323
:1021F00000F00046B6F1004F02D1034EF16101E05C
:10220000014E7160F0BD00000000014070B5054650
:102210000E46002400F0EAF8284600F0B5F8641CE9
:1022200000F03CF9304600F0AFF8641C00F036F9DD
:1022300000F0DCF8691CC8B200F0A6F8641C00F0DD
:102240002DF9002000F068F8044600F003F920465C
:1022500070BD000010B500200E4908600E480068EF
:1022600020F0F0000C4908600846006840F030009B
:10227000086000200949C1F8A401012002F06CFBAC
:1022800001200449086002F067FB00200349C1F8FF
:10229000A00110BDA0812142040C01400080214218
:1022A00008B50121082000F091F94FF44070ADF815
:1022B000000010208DF8030003208DF8020069460D
:1022C0000148FFF7CFFE08BD000C014010B500200B
:1022D0000E4908600E48006820F0F0000C490860C4
:1022E0000846006840F03000086001200949C1F844
:1022F000A40102F031FB01200449086002F02CFB2C
:1023000000200449C1F8A00110BD0000A0812142B5
:10231000040C01400080214270B505460024174896
:10232000006820F0F000154908600846006840F099
:1023300080000860002616E0002011490860022095
:1023400002F00AFB01200F49C1F8A0016006040E4B
:102350000B487C38006808B1601CC4B2022002F04F
:10236000FBFA701CC6B2082EE6DB15B1FFF772FF50
:1023700001E0FFF7ABFF204670BD0000040C0140F8
:10238000A08121420080214270B5044614480068B3
:1023900020F0F000124908600846006840F0300064
:1023A000086000200F490860002516E0E0090D498B
:1023B000091D08606006040E012002F0CDFA01201C
:1023C0000949C1F8A00102F0C7FA002005490860D8
:1023D000012002F0C1FA681CC5B2082DE6DB70BD11
:1023E000040C0140A08121420080214210B5164812
:1023F000006820F0F000144908600846006840F0CA
:10240000300008600120114908601148D0F824010B
:1024100008B9002010BD01200C49091F086002F016
:102420009BFA00200A49C1F8A401084880380068D6
:1024300008B10020EEE7012002F08EFA00200349E7
:10244000091F08600120E5E7040C0140A481214236
:102450000080214210B50E48006820F0F0000C49C1
:1024600008600846006840F0300008600020094914
:1024700008600949C1F8A401012002F06DFA0120A9
:10248000044908600449C1F8A40102F065FA10BDCE
:10249000040C0140A08121420080214210B500249B
:1024A0001548006820F0F0001349086008460068ED
:1024B00040F08000086001201049086002F04CFAEA
:1024C00001200F49C1F8A00102F046FA0AE0601CA1
:1024D000C4B2322C03DDFFF7BDFF002010BD012088
:1024E00002F03AFA0548803800680028EFD1034925
:1024F000091F08600120F1E7040C0140A48121427A
:102500000080214270B5002100230F22C47804B35B
:10251000154C246804F4E064C4F5E064210AC1F1B8
:102520000403CA40447804FA03F184781440214338
:1025300009010E4C0678A155047804F01F0501240A
:10254000AC4005786D11AD0005F1E025C5F80041FE
:1025500009E0047804F01F050124AC40044D06781E
:10256000761145F8264070BD0CED00E000E400E077
:1025700080E100E001460020034A506820F440401A
:1025800008435060704700000010024029B1064A1D
:1025900052690243044B5A6104E0034A5269824380
:1025A000014B5A61704700000010024029B1064AF1
:1025B000D2690243044BDA6104E0034AD2698243E0
:1025C000014BDA61704700000010024029B1064A51
:1025D00092690243044B9A6104E0034A9269824380
:1025E000014B9A61704700000010024030B5002195
:1025F0000022002400232D4D6D6805F00C0121B14F
:10260000042905D0082923D105E0294D056022E0E1
:10261000274D05601FE0254D6D6805F47012234DB0
:102620006D6805F48034022505EB92421CB9214DFA
:10263000554305600BE01D4D6D6805F400351DB177
:102640001C4D5543056002E0194D5543056002E0FD
:10265000174D056000BF00BF144D6D6805F0F00117
:102660000909154D6B5C0568DD4045600F4D6D68CF
:1026700005F4E061090A104D6B5C4568DD4085603A
:102680000A4D6D6805F46051C90A0B4D6B5C4568D5
:10269000DD40C560054D6D6805F44041890B074D6F
:1026A0006B5CC568B5FBF3F5056130BD00100240F9
:1026B00000127A0000093D001C0000202C000020C0
:1026C0002DE9F04F9DB004460D4616464FF07E575B
:1026D0004FF000084FF000094FF0000A16A818A9A3
:1026E00017AB12AACDE9001019A91BA802F0C8FA6D
:1026F00018B101201DB0BDE8F08FBDF8600000F4F6
:10270000807000287DD0129805F0A4FA83464FF01F
:102710009D4105F06DF90746139805F09BFA834635
:102720004FF09D4105F064F98046149805F092FA47
:1027300083464FF09D4105F05BF98146159805F001
:1027400089FA83464FF09D4105F052F98246394699
:102750004FF0804005F0DEFA4946059005F0DAFAC0
:10276000834641464FF0404005F0D4FA514605906B
:1027700005F0D0FA5946069005F0CCF8079005F020
:102780009DF8CDE9080101F09BFDCDE90A0104F0B7
:1027900081FB0D9005F092F84FF066325A4BCDE96F
:1027A0000E0104F0B1FDCDE9100104F073FB2060CF
:1027B00049464FF0804005F0ADFA4946029005F0D9
:1027C000A9FA414603904FF0404005F0A3FA414674
:1027D000029005F09FFA8346039905F099FB4FF0AC
:1027E0007E51049005F096F8059005F067F8CDE964
:1027F000080139464FF0804005F08CFA41460390BD
:1028000000E07FE005F086FA494605904FF08040F1
:1028100005F080FA5146039005F07CFA0490059982
:1028200005F078F8834605F049F8CDE90601DDE9C1
:10283000082301F08DFFCDE90A0104F02BFB0D9078
:1028400005F03CF84FF066322F4BCDE90E0104F055
:102850005BFDCDE9100104F01DFB28605146504698
:1028600005F058FA49460490484605F053FA4146A7
:102870000290404605F04EFA39460190384605F080
:1028800049FA0090019905F045F88346029905F050
:102890003FFB0390049905F03BFB059005F00EF813
:1028A000CDE908015146384605F034FA494604900E
:1028B000404605F02FFA0390049905F02BF8834663
:1028C0004FF0804105F026FA059004F0F7FFCDE9BE
:1028D0000601DDE9082301F03BFFCDE90A0104F020
:1028E000D9FA0D9004F0EAFF4FF06632064BCDE9BD
:1028F0000E0104F009FDCDE9100104F0CBFA3060BF
:102900000020F7E60220F5E666A64C4010B500F080
:1029100001F810BD0CB5002001900090334800680C
:1029200040F480303149086000BF3048006800F44E
:10293000003000900198401C0190009818B901984F
:10294000B0F5A06FF1D12948006800F4003010B153
:102950000120009001E0002000900098012843D160
:102960002348006840F010002149086008460068CC
:1029700020F0030008600846006840F0020008608C
:102980001A48406819494860084640684860084647
:10299000406840F4806048600846406820F47C103D
:1029A00048600846406840F4E810486008460068FF
:1029B00040F08070086000BF0C48006800F00070B4
:1029C0000028F9D00948406820F003000749486012
:1029D0000846406840F00200486000BF0348406875
:1029E00000F00C000828F9D10CBD000000100240D6
:1029F0000020024006480068401C0549086008465F
:102A000000680449884202D90020014908607047E3
:102A1000740000204016400010B51348006840F0D4
:102A200001001149086008464068104908400E49F5
:102A30004860084600680E4908400B49086008468F
:102A4000006820F4802008600846406820F4FE00FA
:102A500048604FF41F008860FFF758FF4FF0006098
:102A60000449086010BD0000001002400000FFF89B
:102A7000FFFFF6FE08ED00E0F0B50C46154600221B
:102A80000021068C4FF6FE773E400684028B018CB7
:102A90004FF60C7632407E1C06EA03162E43324374
:102AA000104EB0420ED0104EB0420BD0B0F1804F5D
:102AB00008D00E4EB04205D00D4EB04202D00D4EA1
:102AC000B04206D14FF6FD76314044F00106314365
:102AD00005E04FF6F576314044F0010631430283BC
:102AE0000184F0BD002C014000340140000400408E
:102AF00000080040000C0040F0B50C4615460022CE
:102B000000210026078C4FF6EF7C07EA0C070784AC
:102B1000028B018C4FF6FF7707EA041640F6FF4759
:102B20003A404FF6FF7707EA03373A434FF6FF770D
:102B300007EA05273A43114FB8420ED0104FB8426A
:102B40000BD0B0F1804F08D00E4FB84205D00E4FD9
:102B5000B84202D00D4FB84206D14FF6DF77394068
:102B600046F01007394305E04FF65F77394044F0EF
:102B70001007394302830184F0BD0000002C01409E
:102B8000003401400004004000080040000C0040F8
:102B9000F0B50C461546002200210026078C4FF6A2
:102BA000FF6C07EA0C070784828B018C4FF6FF77D6
:102BB00007EA04264FF60C773A404FF6FF7707EA0C
:102BC00003172F433A43114FB8420ED0104FB8426B
:102BD0000BD0B0F1804F08D00E4FB84205D00E4F49
:102BE000B84202D00D4FB84206D14FF6FF573940D8
:102BF00046F48077394305E04FF2FF57394044F4FB
:102C00008077394382830184F0BD0000002C0140AD
:102C1000003401400004004000080040000C004067
:102C2000F0B50C461546002200210026078C4EF612
:102C3000FF7C07EA0C070784828B018C4FF6FF7735
:102C400007EA043640F6FF473A404FF6FF7707EAB7
:102C500005273A434FF6FF7707EA03373A43114F08
:102C6000B8420ED0104FB8420BD0B0F1804F08D010
:102C70000E4FB84205D00E4FB84202D00D4FB842A9
:102C800006D14DF6FF77394046F48057394305E0C9
:102C900047F6FF57394044F4805739438283018413
:102CA000F0BD0000002C0140003401400004004051
:102CB00000080040000C004021B1028842F0800270
:102CC000028004E002884FF67F731A40028070474A
:102CD000CA430282704721B1028842F00102028099
:102CE00004E002884FF6FE731A4002807047F0B588
:102CF0000C4615461E460021002200230189028B46
:102D0000038C4FF6F877394021434FF6FC473A40A1
:102D100040F201173A434FF6DD773B404FF6FF771D
:102D200007EA06172F433B43018102830384F0BD6A
:102D300070B505460C46244885420ED0234885428E
:102D40000BD0B5F1804F08D02148854205D02148ED
:102D5000854202D02048854200D100E000BF208893
:102D600050B92389A28861882846FFF785FEE1884B
:102D7000284600F0A2F925E0208804280AD12389FA
:102D8000A28861882846FFF7B7FEE188284600F050
:102D90009DF917E0208808280AD12389A288618834
:102DA0002846FFF7F5FEE188284600F09CF909E087
:102DB0002389A28861882846FFF732FFE1882846E8
:102DC00000F09AF970BD0000002C01400034014071
:102DD0000004004000080040000C00400021018079
:102DE0004180012181800021C180018170471AB199
:102DF00083890B43838102E083898B4383817047FE
:102E000070B5002400220023058C4FF6FE76354075
:102E10000584028C8388048B4FF68F752C40B51E79
:102E20002C400D882C43751E2A400D892A434D885D
:102E30002A43144DA8420BD0134DA84208D0134D7D
:102E4000A84205D0124DA84202D0124DA84213D17B
:102E50004FF6F7752A404D892A434FF6FB752A40F5
:102E60008D882A434FF6FF652B404FF6FF552B40C8
:102E70008D892B43CD892B4383800483CD88858620
:102E8000028470BD002C014000340140004001402C
:102E900000440140004801400A460021018B4FF6E2
:102EA000F7731940114301837047000070B5002487
:102EB00000220023058C4FF6EF7635400584028C06
:102EC0008388048B48F6FF752C404FF6FF452C4055
:102ED0000D884FF6FF7606EA05252C434FF6DF7581
:102EE0002A400D8906EA05152A434D8806EA05158C
:102EF0002A43154DA84202D0144DA8421DD14FF6C9
:102F00007F752A404D894FF6FF7606EA05152A435C
:102F10004FF6BF752A408D8806EA05152A434FF6FD
:102F2000FF352B404FF2FF752B408D8906EA850552
:102F30002B43CD8906EA85052B4383800483CD8806
:102F40000587028470BD0000002C01400034014060
:102F50000A460021018B4FF2FF7319404FF6FF73B1
:102F600003EA0223194301837047000070B500246F
:102F700000220023058C4FF6FF6635400584028C45
:102F80008388848B4FF68F752C404FF6FC752C4050
:102F90000D882C434FF6FF552A400D894FF6FF76DA
:102FA00006EA05252A434D8806EA05252A43154DDC
:102FB000A84202D0144DA8421DD14FF2FF752A40FD
:102FC0004D894FF6FF7606EA05252A434FF6FF3571
:102FD0002A408D8806EA05252A434EF6FF752B40C8
:102FE0004DF6FF752B408D8906EA05152B43CD89DB
:102FF00006EA05152B4383808483CD888587028468
:1030000070BD0000002C0140003401400A46002140
:10301000818B4FF6F773194011438183704700008D
:1030200070B5002200230024058C4EF6FF76354053
:103030000584038C8488828B48F6FF752A404FF6FE
:10304000FF452A400D884FF6FF7606EA05252A43FC
:103050004DF6FF752B400D8906EA05352B434D884B
:1030600006EA05352B430B4DA84202D00A4DA84273
:1030700008D14BF6FF752C408D894FF6FF7606EA96
:1030800085152C4384808283CD88A0F8405003842A
:1030900070BD0000002C0140003401400A460021B0
:1030A000818B4FF2FF7319404FF6FF7303EA02233F
:1030B00019438183704781847047028B4FF6F37305
:1030C0001A400283028B0A4302837047028B4FF23D
:1030D000FF331A400283028B4FF6FF7303EA01238A
:1030E0001A4302837047828B4FF6F3731A40828330
:1030F000828B0A4382837047828B4FF2FF331A40E0
:103100008283828B4FF6FF7303EA01231A43828383
:1031100070470000002202881D4B98420ED01D4BC4
:1031200098420BD0B0F1804F08D01B4B984205D08D
:103130001A4B984202D01A4B984204D14FF68F7323
:103140001A404B881A43174B984207D0164B9842A7
:1031500004D04FF6FF431A40CB881A4302808B8875
:1031600083850B8803850A4B98420BD0094B984204
:1031700008D00E4B984205D00D4B984202D00D4B13
:10318000984201D10B7A03860123838270470000A5
:10319000002C0140003401400004004000080040C1
:1031A000000C0040001000400014004000400140AE
:1031B00000440140004801404FF6FF71818000212A
:1031C0000180C180418001727047000010B5024843
:1031D000006800F0E7F910BD9000002010B502482B
:1031E000006800F0DFF910BD9400002010B5002247
:1031F000002340F66A14A14200D100BF0A12012444
:103200009440A3B2DC43048010BD21B1828942F412
:103210000052828104E082894DF6FF731A40828158
:10322000704702460020B1F5007F00D100BF13882F
:103230000B400BB1012000E00020704770B5024642
:10324000002400230025002040F66A16B14200D178
:1032500000BFC1F3421501F01F03012606FA03F374
:10326000012D02D19689334006E0022D02D1168A43
:10327000334001E0968A33400C12012606FA04F42A
:103280001688344013B10CB1012000E0002070BD5D
:10329000F0B50346002400260025002040F66A17FA
:1032A000B94200D100BF1846C1F3421401F01F0615
:1032B000012707FA06F5012C01D10C3004E0022C9D
:1032C00001D1103000E014301AB107682F430760B5
:1032D00002E00768AF430760F0BD00002DE9F0474A
:1032E00086B005460E460024A24600BFA146002730
:1032F000B08900B100BF2F462C8A4CF6FF70044005
:10330000F08804432C82AC894EF6F3100440B08858
:1033100031890843718908430443AC81AC8A4FF674
:10332000FF400440B0890443AC8201A8FFF75EF976
:103330001F48874202D1DDF810A001E0DDF80CA0A3
:10334000A88900F4004040B10AEBCA0000EB0A1063
:1033500031684900B0FBF1F807E00AEBCA0000EB66
:103360000A1031688900B0FBF1F86420B8FBF0F076
:1033700004012009642101FB1089A88900F40040A0
:1033800040B1322000EBC900B0FBF1F000F00700C3
:10339000044308E0322000EB09106421B0FBF1F097
:1033A00000F00F0004432C8106B0BDE8F087000058
:1033B0000038014001468888C0F308007047C1F317
:1033C00008028280704770B588B002A905A803F092
:1033D000CFF80446072C3CD101A802F057FD059810
:1033E00004F038FC0646019904F094FC054604F00C
:1033F000F5FB0590069804F02DFC0646019904F0B3
:1034000089FC054604F0EAFB0690079804F022FCCC
:103410000646019904F07EFC054604F0DFFB0790A8
:1034200005A801F0E3FD684602F0DCFCBDF80010E1
:10343000029848430290BDF8001003984843039057
:10344000BDF8001004984843049002A801F0FEFC67
:1034500000BF08B070BD0000FEB50646B06804F0BD
:103460002DFA04460D461F4930C100BF306A04F0F2
:1034700025FA04460D461B49103130C100BF02F049
:1034800033FC04461748C838C0F8084100BF6846F6
:103490001449C83901F18002D2E90134D268C0E987
:1034A0000034826000BF00BF01988068BDF808103A
:1034B000084008B1012000E0002030B100BFBDF895
:1034C00008000199486100BF06E000BFBDF8080090
:1034D0000199086100BF00BF00BF684600BF00BF80
:1034E000FEBD0000E0010020014691F90020002A05
:1034F00001DD00201EE091F90020002A01DA0420FD
:1035000018E091F90120002A01DD012012E091F973
:103510000120002A01DA05200CE091F90220002A9E
:1035200001DD022006E091F90220002A01DA0620DE
:1035300000E00720704770B505462846FFF7D4FF26
:103540000446E81CFFF7D0FF44EAC00084B2A81D7F
:10355000FFF7CAFF44EA801084B2204670BD90F89D
:1035600040305B1C03F03F02436C934202D0036C7B
:10357000C1540264704710B5044640212046FDF74F
:103580000DF8002020646064204610BD10B504468C
:10359000204600F02FF9044601482060204610BD67
:1035A0004C8F000870B5044694F848100E4A52F843
:1035B000210040F22551FFF741FEA0B194F84810D8
:1035C000094A52F82100FFF7F5FEC5B22946204608
:1035D000FFF7C5FF94F84810034A52F8210040F263
:1035E0002551FFF703FE70BD7800002030B587B08D
:1035F00004460D4694F8480078B994F848103F4ABC
:1036000052F8211094F848203D4B53F8222041EA0B
:1036100002000121FEF7DAFF0FE094F84810374A64
:1036200052F821000121FEF7C1FF94F84810344AF6
:1036300052F821000121FEF7C9FF14F8480F314963
:1036400031F81000ADF8180003208DF81A0018208A
:103650008DF81B0021782C4A52F8210006A9FEF7AC
:1036600001FD2078294931F81000ADF81800042038
:103670008DF81B002178244A52F8210006A9FEF794
:10368000F1FC02950020ADF80C00ADF80E00ADF88D
:103690001000ADF814000C20ADF8120021781C4A7F
:1036A00052F8210002A9FFF719FE2078194911F8F4
:1036B00010008DF8040000208DF8050020781649D0
:1036C00011F810008DF8060001208DF8070001A800
:1036D000FEF718FF21780E4A52F82100012240F22D
:1036E0002551FFF7D5FD14F84819094A52F8210071
:1036F0000121FFF78AFD07B030BD0000F08000080F
:10370000FC80000808810008840000200E81000869
:1037100078000020148100081A8100080FB410B549
:10372000C2B0044646A8419001A8419A4599FCF7C9
:10373000CDFD0020419001A9204600F01FF842B0C5
:1037400010BC5DF814FB000070B504460D4694F8FB
:103750004810094A52F821002946FFF730FE00BF01
:1037600094F84810044A52F821008021FFF759FDCF
:103770000028F5D0012070BD7800002070B5064605
:103780000C46002504E0615D3046FFF7DDFF6D1C4F
:103790002046FCF7DCFEA842F5D870BD70B50446A3
:1037A0000D462046FFF7E7FE044684F8485094F89B
:1037B000480008B90748046094F84800012801D17E
:1037C0000548046094F84800022801D103480460C9
:1037D000204670BD9000002094000020980000203A
:1037E000704730B5DDE90345016042608360C46025
:1037F000056130BD0149016070470000D48F0008A9
:1038000001604260036170472DE9F84304460D46AC
:1038100016461F46DDE9088925606660278184F821
:103820000A8084F80B902089ADF80000A07A8DF80A
:103830000300E07A8DF8020001212068FEF7C6FE41
:1038400069466068FEF70EFCBDE8F88301894268AE
:10385000116170472DE9FC4107460C4615461E468E
:10386000DDF820800120A84083B2074800EBC400A7
:10387000CDE900684268044850F834103846FFF734
:10388000C3FF3846BDE8FC81300000202DE9F0413F
:103890008CB004460D4616461F4625706680A780EC
:1038A00001210220FEF782FE2078C0B903201823F0
:1038B00000220121009002A8FFF7CCFF804602A859
:1038C00000BF00BF0320182301221146009002A868
:1038D000FFF7C0FF804602A800BF00BF18E003202A
:1038E000182306220021009002A8FFF7B3FF8046AC
:1038F00002A800BF00BF0320182307220021009068
:1039000002A8FFF7A7FF804602A800BF00BF00BFC4
:103910006088ADF82800A088ADF824000020ADF83C
:103920002A00ADF8260009A91D48FFF7F3FB602027
:10393000ADF814000120ADF816000020ADF81A0013
:10394000ADF81C00207880B905A91548FFF70EFBDB
:1039500008211348FFF75AFB05A91148FFF760FB40
:1039600008210F48FFF79AFB0FE005A90C48FFF765
:1039700047FA08210A48FFF78FFA05A90848FFF718
:1039800095FA08210648FFF7E3FA01210448FFF7FA
:1039900093F901210248FFF79EF90CB0BDE8F081D0
:1039A0000004004010B586B0044601210846FEF729
:1039B0000DFE01215E48FEF7E1FB032010230D22DE
:1039C0000221009003A8FFF745FFD0E900128068AC
:1039D000C4E91E12C4F8800003A800BF00BF032082
:1039E00010230E220221009003A8FFF733FF04F1F9
:1039F0008001D0E900238068C1E90123C86003A8E1
:103A000000BF00BF032010230F220021009003A855
:103A1000FFF720FF04F18001D0E900238068C1E9AD
:103A20001C23886703A800BF00BF032010230246A1
:103A30000121009003A8FFF70DFFD0E90023806863
:103A400004F1FC01C1E90023886003A800BF00BFA6
:103A500004F17800FFF7FAFE04F18400FFF7F6FEA8
:103A600004F1F000FFF7F2FE00BFB4F80401D4F84F
:103A70000011486100BF1820A07000BF00BF607037
:103A800000BF204600F016FA4FF0FF331A4601211E
:103A9000204600F047FA27482749284AA063E163F7
:103AA000226400BF40F2671340F2CF72002104F19C
:103AB0009800FFF7EBFE40F2671340F2CF7201214E
:103AC00004F1A800FFF7E2FE04F1900000F0A0F876
:103AD0001B481C491C4B1D4ACDE900101C4904F52C
:103AE0009470FFF77EFE16481649174B174ACDE92A
:103AF0000010174904F5B070FFF773FE002144F879
:103B0000C01F6160A160E16021616161A161E1614B
:103B1000C03C04F5867000F001F9012104F58C70B9
:103B200000F0FCF802F0E0F8C4F8B80006B010BDF0
:103B30000002300010D8D4C1B069C3C2EA8CBEC242
:103B4000000082C30000A5440060084500E0F9447D
:103B500000E0F9C42DE9F14F94B011AA12A913A8FD
:103B6000FEF7AEFD03220EA9149800F05BF9109841
:103B700003F0A4FE04460D460F9803F09FFE064690
:103B80000F460E9803F09AFE80468946119803F07E
:103B900095FE82468B46129803F090FECDE90C010B
:103BA000139803F08BFECDE902ABCDE90489CDE992
:103BB0000667CDE90845CDE90A01DDE90C01CDE94B
:103BC000000104A10848DDE90A23FFF7A7FD15B0AD
:103BD000BDE8F08F25662C25662C25662C25662CE5
:103BE00025662C25660A0000980C002000F1FC01D7
:103BF00000BFA1F1FC000C3900BFA1F1F0006C394D
:103C000000BFA1F184000C3900BFA1F1780070471A
:103C100030B595B004460020206001214802FEF72F
:103C2000D5FC01210846FEF7B1FC03200023042245
:103C30001946009012A8FFF70DFE054612A800BF16
:103C400000BF3348FEF74AF932480790201D08901C
:103C50000020099001200A9000200B9080200C90F9
:103C600040000D9080000E9020200F9000021090D8
:103C70000020119007A92648FEF7D6F90121244813
:103C8000FEF71FF90020029001208DF80C008DF83E
:103C90000D004FF4602004900020059001208DF865
:103CA000180002A91B484C38FEF772F84FF4404048
:103CB000FEF760FC05230122042116484C38FEF76C
:103CC0008FF8012113484C38FEF742F801211148C2
:103CD0004C38FEF732F80F484C38FEF7DDF800BFDD
:103CE0000C484C38FEF749F80028F9D109484C38FF
:103CF000FEF7E2F800BF07484C38FEF734F800281A
:103D0000F9D1012103484C38FEF7CBF815B030BD8E
:103D1000080002404C2401407047000070B58AB092
:103D200004460D462570207810B93D48A06002E099
:103D30004FF08040A0600020608060602078E0B993
:103D400001210420FEF732FC032004230622012176
:103D5000009001A8FFF77EFD064601A800BF00BF46
:103D60000320042307220121009001A8FFF772FD20
:103D7000064601A800BF00BF1CE001210846FEF76F
:103D800015FC0320042300221146009001A8FFF730
:103D900061FD064601A800BF00BF032004230122E5
:103DA0000021009001A8FFF755FD064601A800BFBD
:103DB00000BF00BF07A8FFF7FFF90020ADF81C0007
:103DC0004FF6FF70ADF820000020ADF82200ADF8EE
:103DD0001E0007A9A068FFF79DF900231A460321DA
:103DE000A068FEF784FF04A8FEF7F8FF0A20ADF8EC
:103DF000180004A9A068FEF79BFF0121A068FEF748
:103E000067FF01221146A068FEF7F1FF0021A068BC
:103E1000FFF751F90121A068FEF75DFF0AB070BD00
:103E2000000800402DE9FC5F05460E46904600273D
:103E3000284600F065F8002438E005F13001085705
:103E400003F008FF012101EB440205F10901019093
:103E50008A5C11F8141042EA012108B203F0FAFE5C
:103E6000009005F11800E21C50F82210009803F0B1
:103E700051FD8346019903F04DFF824603F0AEFEEB
:103E80000FFA80F9484603F0E5FE0746B8F1000F47
:103E900002D146F8247007E04FF08D41384603F018
:103EA000A7FD074646F82470601CC4B2032CC4DB8F
:103EB000BDE8FC9F70B5054602F048F8E0B97820EF
:103EC00002F01EFE782001F02FFFC82002F0CAFD8C
:103ED00000F0CAFE0948FFF72EFB044601F01EF968
:103EE00040F2731000F068FDC82001F047F8FFF7BA
:103EF0006AFA012002F0B2FC70BD000068000020E8
:103F000070B50546002400BF09E004F13B00C1B2D2
:103F1000D020FEF77BF9E91C0855601CC4B2062CC2
:103F2000F3DB70BD10B580F83010312422543224F8
:103F3000235410BD2DE9F04104460E461746667025
:103F4000A77000202070002506E0002104F1180071
:103F500040F82510681CC5B2062DF6DB012084F858
:103F6000300001213120015532200155FEF798F92A
:103F70002046BDE8F081000010B504462046FFF75A
:103F800039FC04461148206000206060A060E060B9
:103F90002061201DFFF7FAFA041F00206061A06174
:103FA000E061206204F11400FFF7F0FAA0F11404BC
:103FB00000206062A062E062206304F12400FFF749
:103FC000E5FAA0F12404204610BD0000049000088A
:103FD000490050EAC12018BF04204A0D18BF40F024
:103FE000010040F2FF72B2EB515F08BF40F00200E7
:103FF000012808BF052070472DE9F0414F1E00EB56
:10400000C7010446D1E9000115461E4637F00602F5
:104010000DD02A46334603F077F97F1E04EBC70321
:10402000D3E9002302F068FF37F00602F1D1022F36
:1040300025D0042F13D0062F18BFBDE8F0812A46E3
:10404000334603F061F9D4E90A2302F055FF2A460A
:10405000334603F059F9D4E9082302F04DFF2A460C
:10406000334603F051F9D4E9062302F045FF2A460E
:10407000334603F049F9D4E9042302F03DFF2A4610
:10408000334603F041F9D4E9022302F035FF2A4612
:10409000334603F039F9D4E90023BDE8F04102F0DA
:1040A0002BBF012203F0DDBF02F026BF0022134622
:1040B0001046114602F0D0BF024A0020110703F05B
:1040C000D0BF000001FDFFFF70B500213548FFF7AC
:1040D00065FB0446344A3549FCF7F6F9344C0022B6
:1040E00018212046FFF726FF04464430FFF744FF1F
:1040F000A0F14404343000BFA0F178040C3000BFBC
:10410000A0F184040C30FFF707FEA0F190046030AA
:1041100000BFA0F1F0040C3000BFA0F1FC05224A62
:1041200024492846FCF7D0F9234802F055FE2348DD
:10413000FFF722FF224C2046FFF75CFB0446214894
:10414000206000206060A060E06000BF1E4C204640
:10415000FFF750FB04461D4820600020606000BF50
:1041600001231B4A1BA11D4802F00EFE0023144A26
:104170001BA11D48FFF744FB0023104A1BA11D484B
:10418000FFF73EFB0023104A1BA11D48FFF738FB39
:1041900000211C48FFF702FB0446034A0349FCF7D1
:1041A00093F970BDC800002000000008E137000846
:1041B00018010020ED3B0008B0020020E00B0020B9
:1041C000140C0020EC8F0008140000201C90000844
:1041D00059340008636D645F76656C00240C002020
:1041E0007261775F76656C005C0C00207261775FAE
:1041F000696D7500700C00206261747465727900DD
:10420000840C0020980C002030380A2801D20120AC
:1042100070470020704700002DE9FE4F06460F460C
:104220000025684601F084F9002442E056F8240095
:1042300057F82410A0EB010ABAF1000F01DB514638
:1042400001E0CAF10001084603F004FD83464FF087
:104250008F4103F0CDFB80465DF82400002103F080
:1042600089FC16D05DF82410404603F0C1FB82465D
:104270004FF07E5103F04CFE814629F0004A0F4872
:10428000416A504603F012FE12D20120A0400543BD
:104290000EE00A48C169404603F008FD05D307480F
:1042A000016A404603F002FE02D20120A04005430D
:1042B000641C032CBADB2846BDE8FE8F4881000849
:1042C0002DE9F04D8D4F21F0004A86B005460C4691
:1042D000BA452ADBAAEB070028430AD08848824562
:1042E00001DC1AD1CDB106B02846BDE8F04DFFF78C
:1042F000D8BE844A844B284603F006F807460E468B
:10430000824A834B2846214602F0FEFF06B03A4619
:104310003346BDE8F04D02F0EFBD0120FCF79BFAFB
:1043200006B0BDE8F04DFFF7C1BE7A48824542DADB
:10433000BAF1795F0BDA2846FFF74AFE042808BF76
:10434000FFF7BAFE284606B02146BDE8F08D2A46A2
:104350000B46104602F0D8FF834602466E480E46D2
:104360000B4606217844FFF747FE5A46334602F0D3
:10437000CBFF804669488A465A4633460421784432
:10438000FFF73AFE5A46334602F0BEFF00223B4694
:1043900002F0B2FD02460B464046514602F05CFE7A
:1043A0002A46234602F0B0FF06B02A462346BDE85F
:1043B000F04D02F0A1BD284624F0004100223D4608
:1043C0003B4603F09FF84FF0FF3203F04AFE0646EB
:1043D000024653480F460B4606217844FFF70CFE71
:1043E00032463B4602F090FFCDE900014D4832468F
:1043F0003B4604217844FFF7FFFD32463B4602F07E
:1044000083FF00222B4602F077FD8346029130465F
:10441000394602F067FC804643480D46504517DC9C
:10442000DDE900015A46029B02F016FE42462B4689
:1044300002F06AFF42462B4602F05EFD012203F0C5
:1044400010FE304A304B03F04FF9304A304B4CE00D
:104450004FF0000A52460B46404602F04DFDCDE9B2
:10446000031052462B461046194602F04DFF3246C5
:104470003B4603F047F8DDE9033202F0EDFD064666
:104480000F46DDE900015A46029B02F0E5FD834636
:10449000009101223046394603F0E3FD194A1A4BD8
:1044A00003F030F806460F4601224046294603F045
:1044B000D8FD5A46009B02F027FF32463B4603F0E8
:1044C00013F906460F4601225046294603F0C9FD5E
:1044D0000E4DDFF858802A46434603F013F8324663
:1044E0003B4603F00FF82A46434603F00BF8002C36
:1044F000D8BF81F0004106B0BDE8F08D0000F03F6C
:104500000000F07F075C143326A6913C182D44541C
:10451000FB21F93F0000E03F104A0000264A00005E
:104520009A490000B04900003333EF3FFB21E93FD7
:104530002DE9F84F04460D4621F0004000917349E3
:10454000814211DC7249884201DC06D12CB120463F
:104550002946BDE8F84FFFF7A4BD6E48002DCCBF3B
:104560006D496E49BDE8F88F6D49814211DD6D4995
:104570008142D8BF4FF0FF366DDD20462946FFF758
:1045800027FD042808BFFFF797FD20462946BDE810
:10459000F88F6549654F25F00045814233DD644958
:1045A000814219DD002632464FF0804320462946DD
:1045B00002F0A2FC80468A4601222046294603F0EA
:1045C00050FD00223B4603F08FF84246534602F06E
:1045D00043FD04460D463EE001260022BA463B4616
:1045E0002046294602F088FC80460F4600225346AA
:1045F0002046294603F078F842463B4602F02CFD5F
:1046000004460D4627E04B4981421BDDDFF828A117
:104610000226002253462046294602F075FE00225B
:104620003B4602F069FC80460F4600225346204676
:10463000294603F059F842463B4602F00DFD044678
:104640000D4608E0032622462B4600203B4902F097
:1046500003FD04460D4622462B461046194602F03D
:1046600053FE8B46824602460B4602F04DFE07463D
:104670000246334888460B4606217844FFF7BCFCC7
:1046800052465B4602F040FE82462E488B463A4632
:10469000434605217844FFF7AFFC3A46434602F013
:1046A00033FE02460B46002E504659460CDA02F005
:1046B00023FC22462B4602F027FE01B022462B4661
:1046C000BDE8F04F02F01EBF02F016FC22462B465A
:1046D00002F01AFE1C4A7A4402EBC603D3E9002317
:1046E00003F002F822462B4602F0FEFF174A7A44F6
:1046F00002EBC603D3E9002302F004FF009A002A6C
:10470000B8BF81F00041BDE8F88F00000000104400
:104710000000F07F182D4454FB21F93FFB21F9BF25
:104720000000DC3F0000203E0000F33F0000F03FAF
:104730000000E63F008003400000F83F0000F0BFAB
:10474000E2470000A04700003E4700000647000087
:104750002DE9F04D9446CCF1000423F000464CEADC
:104760000404524F46EAD4749A46884621F0004227
:10477000BC4206D8454240EA050442EAD474BC4231
:1047800004D9BDE8F04D6246FFF78EBCAAF1405552
:10479000A5F17F6555EA0C040BD0022404EAAA7443
:1047A000434DDFF810E144EAD87452EA000B04D01C
:1047B0000CE0BDE8F04DFFF7BBBE002C14BF012C90
:1047C000BDE8F08D022C30D0032C32D056EA0C0B11
:1047D0000AD0BE4220D1BA4209D126F0804622F04A
:1047E00080423346114617E000291ADB25E0DFF846
:1047F000C8B0FB44002C04BFDBE90001BDE8F08D2C
:10480000012C02BFDBE9000181F00041BDE8F08D21
:10481000022C0AD0032C0CD0BA4212D1B8F1000FEE
:104820000BDA23482549BDE8F08D28462449BDE828
:10483000F08D28467146BDE8F08D1D482149BDE840
:10484000F08D921B12153C2AC4BF19481D490EDC7D
:10485000BAF1000FBEBF12F13C0F0020014606DB8B
:10486000624602F0F9FB21F00041FFF761FE002CE7
:1048700008BFBDE8F08D012C04BF81F00041BDE808
:10488000F08D114A114B022C07D002F02DFF2A4661
:10489000BDE8F04D0A4B02F027BF02F025FF2A4683
:1048A000BDE8F04D064B02F02DBE00000000F07F89
:1048B000182D4454FB2109C09A460000FB21F9BF82
:1048C000FB210940FB21F93F075C143326A6A13CDC
:1048D0002DE9F0410446E07800F0C006E07800F0F1
:1048E0003F05607800F0010098B1EF102846E91705
:1048F00005EB5171C910A5EBC101491C01F0FF087E
:104900000B48006820B10A48414602683846904783
:1049100000BF607800F0080030B10548406818B169
:10492000B011034A516888470020BDE8F0810000BB
:10493000E40C0020044A1268111800BF024A1268F1
:104940008A42FBD9704700007400002000B503467E
:104950001846FFF7EFFF00BD10B503460648006894
:104960004FF47A71A0FB0101C41800BF01F0C2F935
:10497000A042FBD910BD00007400002038B50446E9
:1049800064B120208DF8000028208DF8010030202F
:104990008DF8020038208DF8030004E0A3220421E2
:1049A0006846FBF7F3FD6A46042140F69E2002F0BC
:1049B0000FF901F0FFFC38BD3EB5044602208DF82A
:1049C0000000CA208DF80100E3208DF802000920C4
:1049D0008DF803006A460421682002F0F9F8A3204C
:1049E0008DF8000004F0400048B1C0208DF80100AF
:1049F000C8208DF80200C2208DF8030006E0A32035
:104A00008DF801008DF802008DF8030004F4C070E9
:104A100048B1C4208DF80400CC208DF80500C620D4
:104A20008DF8060006E0A3208DF804008DF805003F
:104A30008DF80600A3208DF807008DF808008DF88A
:104A400009006A460A2140F6A72002F0C1F804F0E6
:104A5000030018B120208DF8000002E0D8208DF866
:104A600000006A46012140F6B62002F0B1F804F0D9
:104A7000200018B1012000F0ADF802E0002000F0A5
:104A8000A9F804F4C07008B304F4807060B1B220D7
:104A90008DF800008B208DF80100B6208DF8020003
:104AA0009B208DF803000BE0B0208DF800008020E3
:104AB0008DF80100B4208DF8020090208DF80300DD
:104AC0006A46042140F6A22002F082F804F00100B8
:104AD00020B3F8208DF800006A4601214FF40B60E6
:104AE00002F076F8FA21072000F02CFC072000F0F5
:104AF000F3FB012000F013FC642000F0F3FC4FF402
:104B0000FA7000F002FDC821304800F0A3FB282015
:104B100000F0BCFB0A2000F0CCFB08E0D8208DF8A8
:104B200000006A4601214FF40B6002F051F804F0D6
:104B3000020018B1D9208DF8000002E0D8208DF8CD
:104B400000006A46012140F23D7002F041F804F095
:104B5000040018B1012000F069F802E0002000F024
:104B600065F804F0100018B10120FFF707FF02E01C
:104B70000020FFF703FF44F008001549488101F0C9
:104B800019FC00201249887304F0400018B108464F
:104B9000807B801D887304F4C07020B10C48807B3A
:104BA000801D0B49887304F0140020B10848807BF5
:104BB00010300749887304F0030020B10448807B5B
:104BC000001D0349887300203EBD000009E3CA02AE
:104BD000E40C00203EB504466CB10EA1D1E90020E2
:104BE0008968CDE9002002916A4609214FF4976057
:104BF00001F0EEFF3EBD0AA2D2E900109268CDE9B5
:104C0000010200916A4609214FF4976001F0E0FF2C
:104C1000F0E70000B8AAB38DB4980D355D00000030
:104C2000B8AAAAAAB088C3C5C700000038B5044610
:104C300064B1C0208DF80000C2208DF80100C420AE
:104C40008DF80200C6208DF8030004E08B220421B9
:104C50006846FBF79BFC6A46042140F6982001F069
:104C6000B7FF01F0A7FB38BD10B5C8234FF4806231
:104C7000024940F6F63001F031FA10BD70810008AB
:104C80002DE9F04F8DB00746884615469946DDE977
:104C9000166B0024002030806B49887B5A4605A99A
:104CA00001F0E8FA18B1601E0DB0BDE8F08F66485B
:104CB000807A00F01400002867D09DF814000006E8
:104CC0009DF8151040EA01409DF8161040EA0120B9
:104CD0009DF81710084328609DF8180000069DF8FD
:104CE000191040EA01409DF81A1040EA01209DF891
:104CF0001B10084368609DF81C0000069DF81D10FD
:104D000040EA01409DF81E1040EA01209DF81F1066
:104D10000843A8609DF8200000069DF8211040EA95
:104D200001409DF8221040EA01209DF8231008431D
:104D3000E86004F11000C4B22868001401906868AB
:104D400000140290A86800140390E868001404900E
:104D500001984043029901FB0100039901FB010006
:104D6000049901FB010ABAF1706F02DBBAF1885FA6
:104D700005DD01F01FFB00203080401E94E7B6F9EE
:104D8000000040F48070308000BF2F48807A00F02F
:104D9000400020B305A9601C085C095D40EA0120C1
:104DA00000B2A8F8000005A9E01C095C05AAA01C37
:104DB000105C41EA002000B2A8F8020005A9601DBD
:104DC000095C201D105C41EA002000B2A8F8040034
:104DD000A01DC4B2B6F9000040F0080030801A48A7
:104DE000408900F4C07008B305A9601C085C095D27
:104DF00040EA012000B2388005A9E01C095C05AA40
:104E0000A01C105C41EA002000B2788005A9601D5A
:104E1000095C201D105C41EA002000B2B880A01D92
:104E2000C4B2B6F9000040F0700030800648807AC5
:104E300000F0030018B105A90819FFF749FD48461D
:104E400001F006FF00202FE7E40C002070B588B0C9
:104E5000064601A800F0C6FFBDF804000021C90302
:104E600041EA5045C4034448007A00F0030056F874
:104E7000200005904048007A00F0040010B1059829
:104E8000404205903C48007AC0F3C10056F820002B
:104E900006903948007A00F0200010B10698404290
:104EA00006903548007AC0F3811056F8200007902C
:104EB0003148008900F4807010B107984042079093
:104EC0000598C117A0FB042301FB043100FB05106A
:104ED000810041EA927005900698C117A0FB042357
:104EE00001FB043100FB0510810041EA927006903D
:104EF0000798C117A0FB042301FB043100FB051038
:104F0000810041EA927007900598000E8DF8080024
:104F10000598000C8DF809000598000A8DF80A0024
:104F20000598C0B28DF80B000698000E8DF80C00A5
:104F30000698000C8DF80D000698000A8DF80E00FA
:104F40000698C0B28DF80F000798000E8DF810007B
:104F50000798000C8DF811000798000A8DF81200D0
:104F60000798C0B28DF8130002AA0C214FF42570E7
:104F700001F02EFE08B070BDE40C002030B585B005
:104F8000044616A207CA02AB07C3C82C03DD4FF0C4
:104F9000FF3005B030BDC82090FBF4F0401E85B254
:104FA000280A8DF80000E8B28DF801006A46022157
:104FB00040F2162001F00CFE10B14FF0FF30E8E790
:104FC00002AA0C2140F6C12001F002FE10B14FF000
:104FD000FF30DEE7044884810020DAE7FEF2ABC44C
:104FE000AAF1DFDFBBAFDFDFE40C00201FB5044612
:104FF0004848007A00F0030054F82000019045482A
:10500000007A00F0040010B101984042019041483C
:10501000007AC0F3C10054F8200002903D48007AA5
:1050200000F0200010B10298404202903948007A06
:10503000C0F3811054F8200003903648008900F432
:10504000807010B10398404203903349019880FB6F
:105050000101800F40EA810001902F49029880FBF6
:105060000110820042EA917002902B49039880FB64
:105070000110820042EA917003900198000E8DF8B1
:1050800000000198000C8DF801000198000A8DF8CD
:1050900002000198C0B28DF803006A4604214FF463
:1050A000747001F095FD18B14FF0FF3004B010BDE1
:1050B0000298000E8DF800000298000C8DF8010097
:1050C0000298000A8DF802000298C0B28DF8030021
:1050D0006A4604214FF4757001F07AFD10B14FF06B
:1050E000FF30E3E70398000E8DF800000398000CF2
:1050F0008DF801000398000A8DF802000398C0B2F1
:105100008DF803006A4604214FF4767001F060FDCB
:10511000CCE70000E40C002009E3CA0210B586B019
:10512000044647A00068039046A00068029046A08D
:105130000068019045A00068009004F0030003A9F6
:10514000085C8DF8140003A8C4F3C101405C8DF81D
:10515000150003A8C4F38111405C8DF8160004F01B
:10516000030002A9085C8DF8100002A8C4F3C10175
:10517000405C8DF8110002A8C4F38111405C8DF8E9
:10518000120005AA032140F2264001F021FD18B1CA
:105190004FF0FF3006B010BD04AA032140F22A40B0
:1051A00001F016FD10B14FF0FF30F3E701980590C4
:1051B0000098049004F0040058B19DF8140040F0E9
:1051C00001008DF814009DF8100040F001008DF8EA
:1051D000100004F0200058B19DF8150040F00100C7
:1051E0008DF815009DF8110040F001008DF81100B8
:1051F00004F4807058B19DF8160040F001008DF85D
:1052000016009DF8120040F001008DF8120005AA6A
:1052100003214FF4886001F0DBFC10B14FF0FF3048
:10522000B8E704AA032140F2314001F0D1FC10B1EB
:105230004FF0FF30AEE7064804810020AAE70000E7
:105240004CCD6C000CC92C00365676002646660004
:10525000E40C0020F8B505460E464FF47A7095FB35
:10526000F0F000FB06F4200E8DF80000200C8DF805
:105270000100200A8DF80200E0B28DF803006A46B2
:1052800004214FF4AE7001F0A3FCF8BD38B504461C
:10529000052094FBF0F084B220128DF80000E0B2FB
:1052A0008DF801006A4602214FF4AD7001F090FCC8
:1052B00038BD38B50446052094FBF0F084B22012C6
:1052C0008DF80000E0B28DF801006A4602214FF42B
:1052D000AC7001F07DFC38BD38B50446002000906C
:1052E00004F0010020B19DF8000040F03000009073
:1052F00004F0020020B19DF8000040F00C00009086
:1053000004F0040020B19DF8000040F0030000907C
:105310006A4601214FF4A47001F05AFC38BD38B53B
:105320000446012C01DA012402E0042C00DD0424EF
:10533000601EC0B200906A46012140F24F1001F099
:1053400047FC38BD2DE9FC4706460F4606F007002E
:1053500010B1B7F5C86F03DD4FF0FF30BDE8FC8733
:10536000384602F08FFC8146594902F041FB8046E5
:10537000684600F011FD9DF80000022806D00428C0
:1053800016D0082826D0102848D135E04FF08D419E
:10539000404602F0BFFC814602F03CFC84B24D491D
:1053A000404602F0B7FC814602F034FC85B238E09A
:1053B0004FF08C41404602F0ADFC814602F02AFCE1
:1053C00084B24549404602F0A5FC814602F022FC29
:1053D00085B226E04FF08B41404602F09BFC8146AF
:1053E00002F018FC84B23D49404602F093FC81462D
:1053F00002F010FC85B214E04FF08A41404602F002
:1054000089FC814602F006FC84B23549404602F030
:1054100081FC814602F0FEFB85B202E04FF0FF30D6
:105420009CE700BF20128DF80400E0B28DF8050063
:1054300028128DF80600E8B28DF8070006F001008A
:10544000A0B101AA02214FF4EA7001F0C1FB10B132
:105450004FF0FF3082E70DF1060202214FF4927007
:1054600001F0B6FB10B14FF0FF3077E706F0020015
:10547000A0B101AA02214FF4EC7001F0A9FB10B118
:105480004FF0FF306AE70DF1060202214FF49470ED
:1054900001F09EFB10B14FF0FF305FE706F0040013
:1054A000A0B101AA02214FF4EE7001F091FB10B1FE
:1054B0004FF0FF3052E70DF1060202214FF49670D3
:1054C00001F086FB10B14FF0FF3047E7002045E7C1
:1054D00000004843000040460000C0450000404531
:1054E0000000C04438B50446052094FBF0F085B2B6
:1054F00028128DF80000E8B28DF801006A460221FA
:105500004FF4EF7001F064FB38BD38B50446052058
:1055100094FBF0F085B228128DF80000E8B28DF807
:1055200001006A4602214FF4ED7001F051FB38BDD5
:105530007CB5054628494968087801AB04220D214D
:1055400000F010FB08B107207CBD9DF80700C0F3F8
:1055500001109DF8041001F0E00140EAE1008DF82F
:1055600000009DF80700C0F381009DF8051001F0D0
:10557000E00140EAE1008DF801009DF8070000F02D
:1055800003009DF8061001F0E00140EAE1008DF80B
:10559000020000241CE01DF8040018B9002045F8A2
:1055A000240013E00D4845F8240006E055F82400D7
:1055B0000B4902F0AFFB45F824001DF80400401E23
:1055C000C0B20DF804000028F0D100BF601CC4B2C6
:1055D000032CE0DB0020B7E79C0000207B14AE3EEC
:1055E0001D5A843F2DE9F04F87B005460C46914681
:1055F00001208DF8100000208DF81100FE4A12687D
:10560000917CFD4A5268107804AB022200F0E5FA62
:1056100020B14FF0FF3007B0BDE8F08FC820FFF792
:1056200095F900208DF81000F34A1268D17BF24AF8
:105630005268107804AB012200F0CFFA10B14FF09D
:10564000FF30E8E7EC4A12685179EB4A526810786B
:1056500004AB012200F0C1FA10B14FF0FF30DAE7DD
:10566000E54A1268917CE44A5268107804AB012242
:1056700000F0B3FA10B14FF0FF30CCE7DE4A126809
:10568000D17DDD4A5268107804AB012200F0A5FA02
:1056900010B14FF0FF30BEE7D74A12681179D64AF1
:1056A0005268107804AB012200F097FA10B14FF065
:1056B000FF30B0E70C208DF81000CF4A1268117946
:1056C000CD4A5268107804AB012200F086FA10B17E
:1056D0004FF0FF309FE70F20FFF738F9C648806A88
:1056E000407A8DF81000C44A12689178C24A526814
:1056F000107804AB012200F070FA10B14FF0FF30C7
:1057000089E7BD48806A007A8DF81000BA4A1268AD
:105710005178B94A5268107804AB012200F05DFA62
:1057200010B14FF0FF3076E7B9F1000F07D0B24863
:10573000806A807A40F0E0008DF8100004E0AE4806
:10574000806A807A8DF81000AB4A12689179AA4A73
:105750005268107804AB012200F03FFA10B14FF00C
:10576000FF3058E7B9F1000F07D0A348806AC07A2C
:1057700040F0E0008DF8100003E0A048C07A8DF8FA
:1057800010009D4A1268D1799B4A5268107804AB88
:10579000012200F022FA10B14FF0FF303BE7B9F1DF
:1057A000000F02D0C820FFF7D1F840208DF810007C
:1057B000914A12681179904A5268107804AB01221C
:1057C00000F00BFA10B14FF0FF3024E778208DF88D
:1057D0001000894A12685179874A5268107804ABE0
:1057E000012200F0FAF910B14FF0FF3013E78349BE
:1057F0008889FFF7ABF800208DF810007E4A126808
:1058000051797D4A5268107804AB012200F0E5F925
:1058100010B14FF0FF30FEE6774A1268917A764A6F
:105820005268107804AB022200F09CF910B14FF0DE
:10583000FF30F0E69DF811009DF8101040EA012BB2
:105840000C209BFBF0F0C6B20020A86068602860C6
:10585000A06060602060824665E0674A1268D17A85
:10586000654A5268107804AB0C2200F07BF910B145
:105870004FF0FF30CFE69DF811009DF8101040EA80
:10588000012000B2ADF808009DF813009DF8121039
:1058900040EA012000B2ADF80A009DF815009DF81D
:1058A000141040EA012000B2ADF80C00BDF9081058
:1058B000206808442060BDF90A10606808446060F0
:1058C000BDF90C10A0680844A0609DF817009DF871
:1058D000161040EA012000B2ADF800009DF8190052
:1058E0009DF8181040EA012000B2ADF802009DF8C2
:1058F0001B009DF81A1040EA012000B2ADF8040028
:10590000BDF90010286808442860BDF902106868D5
:1059100008446860BDF90410A8680844A8600AF14A
:10592000010000F0FF0AB24597DB3448D0F800C010
:105930002868C117090441EA1041070462460023A0
:105940003846FAF79FFC32460023CDE90201FAF708
:1059500099FC28602948D0F800C06868C11709047C
:1059600041EA10410704624600233846FAF78AFCF0
:1059700032460023CDE90201FAF784FC68601F4833
:10598000D0F800C0A868C117090441EA1041070413
:10599000624600233846FAF775FC32460023CDE90B
:1059A0000201FAF76FFCA8601448D0F804C021681F
:1059B000C817000440EA11480F0462460023384625
:1059C0004146FAF75FFC32460023CDE90201FAF7BF
:1059D00059FC20600948D0F804C06068C117090468
:1059E00041EA10410704624600233846FAF74AFCB0
:1059F0003246002304E000009C000020488100089B
:105A0000CDE90201FAF73EFC60601148D0F804C00D
:105A1000A068C117090441EA104107046246002347
:105A20003846FAF72FFC32460023CDE90201FAF797
:105A300029FCA060A068002804DDA068A0F58030E3
:105A4000A06003E0A06800F58030A0600020E2E5DF
:105A5000488100082DE9FC5F06460F4600253D49B8
:105A60004968087801AB03220D2100F07BF810B1E2
:105A70000720BDE8FC9F9DF8040000F01F008DF892
:105A800004009DF8050000F01F008DF805009DF84A
:105A9000060000F01F008DF80600002456E056F8BE
:105AA000240057F82410A0EB010BBBF1000F01DB21
:105AB000594601E0CBF10001084602F0CBF84FF067
:105AC0008F41009001F094FF814601A8005D68B30A
:105AD0002149086802F0D6F8834659461F4801F06C
